:020000040800F2
:100000009006002001010008213200088128000824
:1000100051310008A10A00084D3800080000000016
:100020000000000000000000000000007532000821
:10003000A50A0008000000004932000879320008D3
:100040001B0100081B0100081B0100081B01000820
:100050001B0100081B0100081B0100081B01000810
:100060001B0100081B0100081B0100081B01000800
:100070001B0100081B0100081B0100081B010008F0
:100080001B0100081B0100081B0100081B010008E0
:100090001B0100081B0100081B0100081B010008D0
:1000A0001B010008913300081B0100081B01000818
:1000B0001B0100081B0100081B0100081B010008B0
:1000C0001B0100081B0100081B0100081B010008A0
:1000D0001B0100081B0100081B0100081B01000890
:1000E0001B0100081B0100081B010008DFF80CD0F1
:1000F00000F052FC00480047A55800089006002078
:100100000648804706480047FEE7FEE7FEE7FEE7B1
:10011000FEE7FEE7FEE7FEE7FEE7FEE78F330008B7
:10012000ED0000082DE9F0410024061B254671F181
:10013000000605DA01240027D0EB070067EB010178
:10014000161E73F1000605DA0027D2EB070201251F
:1001500067EB030300F02EFA86460E4617469C46D0
:10016000AC4204D00025D0EB050E65EB010624B1AE
:100170000020D2EB000760EB030C704631463A4694
:100180006346BDE8F081202A04DB203A21FA02F020
:100190000021704721FA02F3D040C2F120029140C1
:1001A000084319467047D2B201E000F8012B491EFE
:1001B000FBD270470022F6E710B513460A46044604
:1001C0001946FFF7F0FF204610BD30B50446002069
:1001D000034600E05B1C934203D2E05CCD5C401B15
:1001E000F8D030BDF0B480EA0102D40F4200B2EB87
:1001F000410F02D20246084611464A0042D0C30DC2
:10020000DDB2C1F3C752AD1A202D35DAC1F31601A4
:1002100041F4000204B15242C5F1200602FA06F18F
:100220002A411044B3EBD05F23D0C4B1012DA0EB21
:10023000C35009DCF0BC4FF0004202EAC352DBB20B
:1002400000F5000000F0F0B9400000F1807000EB14
:10025000C350A0F1807040EAD170490009E049081C
:1002600041EAC071A0EBC35000F50000400800EB6C
:10027000C350F0BC00F0CFB96142012202EB410152
:10028000001BF6E7F0BC704781F00041AAE780F060
:100290000040A7E780EA010210B502F000434000E9
:1002A00022D04A001FD0010E01EB1261C0F35600AC
:1002B000C2F3560240F4000042F40002A0FB022008
:1002C00000047F39140400D0401C50EA124001D4CD
:1002D0004000491EC2B20C0604EBD010401C40087E
:1002E000802A02D003E0002010BD20F00100002988
:1002F00000DA0020184310BD30B480EA010202F099
:10030000004530F0004221F0004013D090B1C30D01
:10031000D40DC2F31601C0F31600E41A41F4000133
:1003200040F400027D34914201D3641C00E0490096
:10033000002C02DA30BC002070474FF4000000238C
:10034000914201D3891A034340084FEA4101F7D192
:1003500051B1914202D14FF0004105E002D24FF07D
:10036000010101E06FF0010103EBC450284430BCEF
:1003700000F051B92DE9FE4F81EA030404F0004476
:1003800021F0004100944FF0000B23F0004350EAAD
:1003900001045ED052EA03045BD0C3F30A54C1F3F4
:1003A0000A552C44A4F2F3340194A0FB0254C1F387
:1003B000130141F48011C3F3130343F4801301FBD1
:1003C000024400FB034E840A970A44EA815447EA38
:1003D0008357A4FB076802958D0A05FB07854FEA42
:1003E000932C04FB0C542705029D4FEA065847EA5C
:1003F0001637B5EB08056EEB070C870E920E47EA31
:10040000811742EA8312A7FB0201B6EB0B0164EBF2
:1004100000042B0D43EA0C335E1844EB1C50DA4603
:100420005146E7FB0201C5F313044FEA0B3343EADD
:1004300014534FEA0432019C43EA0603A4F10C046E
:100440000294009CCDE900B400F02BF903B0BDE8A4
:10045000F08F00200146F9E7C10F80EAE070084400
:10046000CA079623002100F0DFB896230022114628
:1004700000F0DAB80EB5C10F80EAE0700844CA0790
:10048000002140F233438DE80E000A460B4600F08F
:1004900008F903B000BD00F0004220F00040C10D9B
:1004A000C0F3160040F400007F2901DA00207047F5
:1004B000962903DCC1F19601C84001E096398840D5
:1004C000002AF4D04042704720F00040C10DC0F334
:1004D000160040F400007F2901DA002070479629B9
:1004E00003DCC1F19601C8407047963988407047D7
:1004F00070B5C1F30A5201F000450024C1F31301A5
:1005000040F2FF3341F480119A4201DA002070BDBD
:1005100040F233439A42A2F2334203DC5242FFF7E5
:1005200032FE00E090402C43F1D0404270BD00F01C
:10053000004230F000400AD0C10D01F56071C0F3F7
:10054000160042EA0151C2084007114370470020DB
:100550000146704701F0004330B421F0004150EAF9
:10056000010206D00A0DA2F56072C1F31301002A40
:1005700002DC30BC00207047440F44EAC104C100D3
:10058000E01830BC00EBC25000F045B8002801DB99
:10059000C0F10040002901DBC1F1004181427047F8
:1005A000002801DBC0F10040002901DBC1F100415E
:1005B000884270472DE9F05F0546002092469B4631
:1005C00088460646814640241BE028464146474669
:1005D0002246FFF7D8FD53465A46C01A914110D320
:1005E00011461846224600F0E9F92D1A67EB01087A
:1005F0004F4622460120002100F0E0F917EB0009E8
:100600004E41201EA4F10104DFDC484631462A4653
:100610004346BDE8F09F0029A8BF7047401C490031
:1006200008BF20F00100704710B4B0FA80FC00FA57
:100630000CF050EA010404BF10BC704749B1CCF182
:10064000200421FA04F411FA0CF118BF012121430E
:100650000843A3EB0C01CB1D4FEA00614FEA1020C9
:1006600042BF002010BC704700EBC350104400296B
:10067000A4BF10BC7047401C490008BF20F0010017
:1006800010BC704710B5141E73F1000408DA401C4A
:1006900041F1000192185B411A4301D120F00100A1
:1006A00010BD2DE9F04D92469B4611B1B1FA81F291
:1006B00002E0B0FA80F22032904600F07FF9044662
:1006C0000F4640EA0A0041EA0B0153465A460843E6
:1006D00013D0114653EA010019D0C8F14002504628
:1006E000FFF751FD05460E4650465946424600F07A
:1006F00065F9084305D0012004E020463946BDE8ED
:10070000F08D0020054346EAE0762C4337430A98F3
:100710006305E40AA0EB08000022FD0A44EA4754FE
:100720000A3002D500200146E9E7010510196941A8
:10073000DDE9084500196941BDE8F04DA2E72DE962
:10074000FE4F804681EA0300C00F0C46009021F066
:10075000004123F00045B8EB0200A94105D2404614
:10076000214690461C460B46024623F000401043AB
:1007700047D0270DC7F30A00C3F30A510290401A6D
:10078000019040286BDAC3F3130040F4801B0098FB
:10079000924620B10023D2EB030A63EB0B0B0198C6
:1007A0005946C0F14002504600F008F906460D4691
:1007B00050465946019A00F010F910EB08006141CB
:1007C000002487EA115284EAE7731A4340D0009A62
:1007D00062B3019A012A4FEA075215DC001B61EB54
:1007E00002014FF0004202EA0752CDE90042001C2C
:1007F00041F5801132462B46FFF753FF03B0BDE8A9
:10080000F08F40462146F9E7001B61EB0201001C16
:1008100041F5801300185B412018A2F5001747EB43
:10082000030140EAD570B6196D4111E06D084FEA39
:10083000360645EAC0754FEA0752001B61EB02011C
:10084000001C41F5801149084FEA30000019514160
:1008500032462B4603B0BDE8F04FFFF713BF0098B8
:10086000012240000023D0EB020263EBE07300980A
:1008700021464FEAE074B8EB000061EB0401E9E7C0
:1008800083F000435BE781F0004158E72DE9F04D2C
:1008900081EA030404F0004B21F0004514464FF0B8
:1008A000000A23F0004150EA050220D054EA010278
:1008B0001DD0C5F30A570246C5F31303C1F3130055
:1008C000C1F30A5640F4801543F48013A7EB0608E1
:1008D000101BD64608F2FD3873EB050002D308F171
:1008E000010801E092185B41B8F1000F03DA002023
:1008F0000146BDE8F08D00204FF480110646844685
:100900000EE0171B73EB050705D3121B63EB050302
:1009100006434CEA010C49084FEA300092185B414B
:1009200050EA0107EDD152EA030012D082EA040036
:1009300083EA0501084305D0101BAB4106D2012212
:10094000002306E000224FF0004302E06FF00102B6
:1009500053101AEB06004CEB085110EB0A0041EB68
:100960000B01BDE8F04DFFF78DBE70B521F00043DF
:1009700003430CD0C1F30A550024D5EB040564EB06
:100980000403D617AD1AB34102DB0020014670BD47
:10099000201841EB025170BD064C074D06E0E0689F
:1009A00040F0010394E8070098471034AC42F6D3B6
:1009B000FFF7A0FBA0760008C0760008202A04DB21
:1009C000203A00FA02F1002070479140C2F1200362
:1009D00020FA03F3194390407047202A06DBCB1717
:1009E000203A41FA02F043EAE07306E041FA02F3EA
:1009F000D040C2F1200291400843194670472DE9CA
:100A0000F04D00231A461B1A8A4103DB00200146E1
:100A1000BDE8F08DC1F30A52C1F3130141F4801512
:100A20004FF0000BD10702D100186D41521E002774
:100A3000044640F2FF11384601EB620A3E4680460A
:100A4000024600204FF48011FFF79DFBC21971414F
:100A5000BB1846EB0100B4EB030C75EB000C04D3A0
:100A6000E41A65EB000517460E46241908F101004B
:100A70006D4180463428E3DDF91946EB0600091B79
:100A8000A84103D24FF0FF32134601E00022134683
:100A90001BEB070046EB0A51BDE8F04DFFF7F2BD36
:100AA00000BFFEE7704772B600BFFEE72DE9F847CA
:100AB0000346002294466EE14FF0010808FA02F462
:100AC000D1F8008008EA0400A0427DD1DFF8DCA262
:100AD000D1F80480A8EB0A09D0453AD014DCB8F16B
:100AE000030F50D009DCB8F1000F31D0B8F1010F7D
:100AF0001CD0B8F1020F49D120E0B8F1110F18D085
:100B0000B8F1120F42D11EE0B9F5881F25D006DCDE
:100B1000B9F5803F20D0B9F5801F37D11AE0B9F57B
:100B2000001F18D0B9F5041F30D117E0D1F80CC060
:100B30002DE0D1F80C8008F1040C28E0D1F80C80ED
:100B400008F1080C23E0D1F80C8008F10C0C1EE031
:100B500000BF00BF00BF00BF00BF00BFD1F80880CA
:100B6000B8F1000F02D14FF0040C0BE0D1F808806F
:100B7000B8F1010F03D14FF0080C1C6102E04FF0F7
:100B8000080C5C6103E04FF0000C00E000BF00BF08
:100B9000FF2801D8984601E003F104084646FF28E3
:100BA00002D84FEA820803E0A2F108084FEA880859
:100BB0004746D6F800804FF00F0909FA07F928EAEE
:100BC00009080CFA07F900E088E048EA0908C6F8C5
:100BD0000080D1F8048008F08058B8F1805F7DD1A2
:100BE00000BFDFF8CC81D8F8188048F00108DFF8A2
:100BF000C091C9F81880C846D8F8188008F00108D4
:100C0000CDF8008000BF00BF4FEAB9384FEA920923
:100C100058F829504FEA82784FEA18794FF00F08B8
:100C200008FA09F825EA0805DFF88881434502D16A
:100C30004FF0000816E0DFF88081434502D14FF005
:100C400001080FE0DFF87481434502D14FF002083C
:100C500008E0DFF86C81434502D14FF0030801E062
:100C60004FF004084FEA82794FEA197908FA09F837
:100C700048EA0505DFF84C814FEA920948F8295007
:100C8000D1F8048008F48018B8F5801F0AD1DFF885
:100C90003881D8F8008048EA0008DFF82C91C9F8BC
:100CA000008009E0DFF82081D8F8008028EA0008F9
:100CB000DFF81491C9F80080D1F8048008F4001816
:100CC000B8F5001F10D1DFF8008108F10408D8F84A
:100CD000008048EA0008DFF8F09000E05AE009F1EF
:100CE0000409C9F800800DE0DFF8DC8008F1040891
:100CF000D8F8008028EA0008DFF8CC9009F1040950
:100D0000C9F80080D1F8048008F40038B8F5003F35
:100D10000ED1DFF8B480A8F10408D8F8008048EAC2
:100D20000008DFF8A490A9F10409C9F800800DE0DB
:100D3000DFF89480A8F10408D8F8008028EA0008B9
:100D4000DFF88490A9F10409C9F80080D1F8048083
:100D500008F48038B8F5803F0ED1DFF86C80A8F138
:100D60000808D8F8008048EA0008DFF85C90A9F18C
:100D70000809C9F800800DE0DFF84C80A8F10808E8
:100D8000D8F8008028EA0008DFF83C90A9F10809AB
:100D9000C9F80080521CD1F8008028FA02F8B8F196
:100DA000000F7FF489AEBDE8F88700000000111045
:100DB0000010024000080140000C014000100140FA
:100DC0000014014008000140080401400AB101611B
:100DD00001E00B04036170470148006870470000A0
:100DE0007000002070B504460CB9012070BD94F865
:100DF0003D0028B9002084F83C00204600F03EFB6E
:100E0000242084F83D002068006820F0010021685B
:100E100008602068006840F400402168086020688D
:100E2000006820F400402168086000F00BFD0546D2
:100E30005C496068884206D85B48854201D201203F
:100E400007E0002005E05948854201D2012000E07A
:100E50000020012800D1C9E75548B5FBF0F620680D
:100E6000406820F03F003043216848604D49606889
:100E7000884201D8701C07E04FF4967070434FF41D
:100E80007A71B0FBF1F0401C2168096A21F03F0142
:100E900008432168086243496068884214D8681E84
:100EA00061684900B0FBF1F0401CC0F30B0004285E
:100EB00001D204203DE0681E61684900B0FBF1F0FA
:100EC000401CC0F30B0034E0A06838B9681E6168AC
:100ED00001EB4101B0FBF1F0401C0AE0681E6168C3
:100EE00001EBC10202EB0111B0FBF1F0401C40F438
:100EF0008040C0F30B0008B901201AE0A06848B98F
:100F0000681E616801EB4101B0FBF1F0401CC0F3C9
:100F10000B000CE0681E616801EBC10202EB0111DD
:100F2000B0FBF1F0401CC0F30B0040F4804040F4F3
:100F300000402168C9694CF6FF729143084321685B
:100F4000C861D4E9070108432168096821F0C0019C
:100F5000084321680860D4E90310084321688968C0
:100F600048F2FF329143084321688860D4E90501C3
:100F700008432168C96821F0FF0108432168C8605F
:100F80002068006840F001002168086000202064AB
:100F9000202084F83D000020206384F83E0000BF3C
:100FA00024E70000A086010080841E0000093D00A7
:100FB00040420F002DE9FE4F04460F4690469946E9
:100FC000DDE90CAB0E9E00200290FFF705FF054601
:100FD00094F83D00202872D119230122CA492046E5
:100FE000009501F0C2FD10B10220BDE8FE8F00BFE8
:100FF00094F83C00012801D10220F6E7012084F892
:101000003C0000BF2068006800F0010028B920689B
:10101000006840F00100216808602068006820F442
:10102000006021680860222084F83D00402084F898
:101030003E0000202064C4F824A0A4F82AB0608DEB
:101040002085B248E0624B46424639462046CDE90B
:10105000006501F037FC08B10120C6E7208D88B992
:1010600000BF0020019020684069019020688069DD
:10107000019000BF00BF2068006840F40070216844
:1010800008604BE0208D01281AD12068006820F408
:1010900080602168086072B600BF0020019020685F
:1010A0004069019020688069019000BF00BF2068FE
:1010B000006840F400702168086062B62EE020E10C
:1010C000208D022819D12068006840F40060216852
:1010D000086072B600BF002001902068406901904E
:1010E00020688069019000BF00BF2068006820F47C
:1010F00080602168086062B610E02068006840F4F3
:1011000080602168086000BF00200190206840696D
:10111000019020688069019000BF00BFE2E0208D4F
:1011200003287DD8208D012815D12A463146204636
:1011300001F0F7FD08B1012057E720680069616AF6
:101140000870606A401C6062208D401E2085608DA2
:10115000401E6085C6E0208D02282CD13346002237
:101160006B492046009501F000FD08B101203CE7E5
:1011700072B62068006840F400702168086020683A
:101180000069616A0870606A401C6062208D401EC0
:101190002085608D401E608562B620680069616AA6
:1011A0000870606A401C6062208D401E2085608D42
:1011B000401E608596E03346002255492046009542
:1011C00001F0D3FC08B101200FE72068006820F48B
:1011D00080602168086072B620680069616A0870E2
:1011E000606A401C6062208D401E2085608D401E1C
:1011F0006085484800681921B0FBF1F04FF47A711E
:10120000B0FBF1F0C0EBC00000EB8000029000BF2B
:101210000298401E02900298A8B90020206300E0C6
:1012200039E0202084F83D00002084F83E00206C46
:1012300040F02000206462B600BF002084F83C002B
:1012400000BF0120D1E620684069C0F3800000287B
:10125000DED02068006840F40070216808602068D3
:101260000069616A0870606A401C6062208D401EDF
:101270002085608D401E608562B620680069616AC5
:101280000870606A401C6062208D401E2085608D61
:10129000401E608526E02A463146204601F041FD89
:1012A00008B10120A1E620680069616A0870606ADF
:1012B000401C6062208D401E2085608D401E608530
:1012C00020684069C0F3800060B120680069616AED
:1012D0000870606A401C6062208D401E2085608D11
:1012E000401E6085208D00287FF419AF202084F8EF
:1012F0003D00002084F83E0000BF84F83C0000BFA1
:1013000073E6022071E60000020010000000FFFFFB
:10131000040001007C0000202DE9FC5F04460F461C
:1013200090469946DDE90CAB0E9EFFF755FD05464C
:1013300094F83D0020287DD1192301224D492046F3
:10134000009501F012FC10B10220BDE8FC9F00BF27
:1013500094F83C00012801D10220F6E7012084F82E
:101360003C0000BF2068006800F0010028B9206838
:10137000006840F00100216808602068006820F4DF
:10138000006021680860212084F83D00402084F836
:101390003E0000202064C4F824A0A4F82AB0608D88
:1013A00020853548E0624B46424639462046CDE925
:1013B000006501F037FB08B10120C6E731E02A469D
:1013C0003146204601F0F2FC50B1206C042805D1D2
:1013D0002068006840F40070216808600120B4E7CC
:1013E000606A007821680861606A401C6062208D34
:1013F000401E2085608D401E608520684069C0F3D6
:10140000800070B1208D60B1606A00782168086149
:10141000606A401C6062208D401E2085608D401EE9
:101420006085208D0028CAD12A463146204601F029
:1014300069FB00E01CE050B1206C042805D1206855
:10144000006840F400702168086001207DE7206892
:10145000006840F4007021680860202084F83D0096
:10146000002084F83E0000BF84F83C0000BF6CE719
:1014700002206AE7020010000000FFFF10B586B0EE
:101480000446002002900390049005901A492068B9
:1014900088422FD100BF1948806940F008001749E1
:1014A00088610846806900F00800019000BF00BF15
:1014B0004FF440700290122003900320059002A97F
:1014C0000F48FFF7F3FA00BF0E49486840F0E060AC
:1014D00040F00200486000BF00BF0848C06940F407
:1014E00000100649C8610846C06900F40010019068
:1014F00000BF00BF06B010BD005400400010024005
:10150000000C0140000001400348006803490978CD
:1015100008440149086070477000002078000020EE
:1015200010B50848006840F0100006490860032024
:1015300000F0A8F8002000F007F800F02BF80020D9
:1015400010BD00000020024070B504460E4800782F
:10155000C821B1FBF0F00D490968B1FBF0F5284650
:1015600000F0FAFB08B1012070BD102C07D2002258
:101570002146501E00F048F80548046001E00120B3
:10158000F2E70020F0E70000780000207C00002057
:101590007400002008B500BF1148806940F00100C8
:1015A0000F4988610846806900F00100009000BF83
:1015B00000BF00BF0846C06940F08050C8610846BF
:1015C000C06900F08050009000BF00BF00BF054917
:1015D000486820F0E06040F00070486000BF08BD3F
:1015E000001002400000014001460846002809DBC7
:1015F00000F01F0301229A4043099B0003F1E023FE
:10160000C3F8002100BF70472DE9F05F80460D460A
:101610001646002702F030F9074639462A46334677
:1016200001F00700C0F1070ABAF1040F02D94FF028
:10163000040A01E0C0F1070AD14600F1040ABAF138
:10164000070F02D24FF0000A01E0A0F1030AD446CE
:101650004FF0010A0AFA09FAAAF1010A0AEA020A93
:101660000AFA0CFA4FF0010B0BFA0CFBABF1010B71
:101670000BEA030B4AEA0B042146404602F004F948
:10168000BDE8F09F00BF00F00702064B19684FF657
:10169000FF031940044B0B4343EA0221014B19603D
:1016A00000BF70470CED00E00000FA0570B504467D
:1016B0000D460CB9012070BD5A48006800F00700C3
:1016C000A8420ED25748006820F007002843554929
:1016D00008600846006800F00700A84201D0012019
:1016E000E9E7207800F0020002281DD1207800F000
:1016F0000400042805D14C48406840F4E0604A49A1
:101700004860207800F00800082805D14648406865
:1017100040F46050444948604348406820F0F0007D
:10172000A168084340494860207800F0010078B380
:101730006068012806D13C48006800F4003090B988
:101740000120B8E76068022806D13748006800F039
:10175000007040B90120AEE73348006800F0020095
:1017600008B90120A7E73048406820F0030061680D
:1017700008432D494860FFF72FFB064609E0FFF7B5
:101780002BFB801B41F28831884202D9032092E76B
:1017900007E02548406800F00C006168B0EB810F5D
:1017A000EDD12048006800F00700A8420ED91D487E
:1017B000006820F0070028431A49086008460068BE
:1017C00000F00700A84201D0012074E7207800F063
:1017D0000400042807D11448406820F4E060E16860
:1017E000084311494860207800F00800082808D113
:1017F0000D48406820F46050216940EAC1000A4960
:10180000486000F03FF808494968C1F30311074AEE
:10181000515CC8400649086006480068FFF794FE1E
:10182000002048E7002002400010024098750008A0
:101830007C00002074000020014800687047000010
:101840007C00002000B5FFF7F7FF04494968C1F3A9
:101850000221034A515CC84000BD00000010024054
:10186000A875000800B5FFF7E7FF04494968C1F310
:10187000C221034A515CC84000BD00000010024074
:10188000A875000870B50021002200240023002064
:10189000134D696801F00C05F5B1042D02D0082D37
:1018A00019D101E00F4819E00F4DC1F38346AB5D3C
:1018B00001F4803555B10A4D6D68C5F340450B4EB6
:1018C000725D084D5D43B5FBF2F402E0084D03FB89
:1018D00005F4204602E000BF024800BF00BF70BD13
:1018E0000010024000127A00867500089675000804
:1018F00000093D00F8B504460CB90120F8BD207878
:1019000000F00100002878D0F848406800F00C0092
:1019100004280CD0F548406800F00C00082811D1CC
:10192000F248406800F48030B0F5803F0AD1EF48BB
:10193000006800F4003000285FD0606800285CD1A7
:101940000120DBE700BF6068B0F5803F06D1E748C3
:10195000006840F48030E549086028E0606858B9C4
:10196000E248006820F48030E049086008460068DA
:1019700020F4802008601AE06068B0F5A02F0BD139
:10198000DA48006840F48020D849086008460068BA
:1019900040F4803008600AE0D448006820F48030C9
:1019A000D24908600846006820F48020086000BF23
:1019B000606888B1FFF710FA054606E0FFF70CFAF9
:1019C000401B642801D9032098E7C848006800F448
:1019D00000300028F2D010E0FFF7FEF9054606E0DF
:1019E000FFF7FAF9401B642801D9032086E7BF48B6
:1019F000006800F400300028F2D1207800F00200E6
:101A0000022857D1B948406800F00C0050B1B748DF
:101A1000406800F00C00082818D1B448406800F471
:101A2000803098B9B148006800F0020020B1206908
:101A3000012801D0012061E7AC48006820F0F800DF
:101A4000616940EAC100A949086033E02069E8B152
:101A50000120A7490860FFF7BFF9054606E0FFF738
:101A6000BBF9401B022801D9032047E79F480068C3
:101A700000F002000028F2D09C48006820F0F80036
:101A8000616940EAC1009949086013E00020984963
:101A90000860FFF7A1F9054606E0FFF79DF9401B36
:101AA000022801D9032029E79048006800F00200CD
:101AB0000028F2D1207800F0080008282DD1A06974
:101AC000B8B101208B490860FFF786F9054606E0AA
:101AD000FFF782F9401B022801D903200EE7834853
:101AE000406A00F002000028F2D0012001F0AEFBB5
:101AF00013E000207F490860FFF76EF9054606E015
:101B0000FFF76AF9401B022801D90320F6E677485F
:101B1000406A00F002000028F2D1207800F00400B2
:101B2000042873D100277148C06900F0805070B953
:101B300000BF6E48C06940F080506C49C8610846DB
:101B4000C06900F08050009000BF00BF01276A48C4
:101B5000006800F48070B0B96748006840F4807095
:101B600065490860FFF738F9054606E0FFF734F9E4
:101B7000401B642801D90320C0E65F48006800F4D8
:101B800080700028F2D000BFE068012806D15748D5
:101B9000006A40F001005549086227E0E06858B942
:101BA0005248006A20F00100504908620846006A65
:101BB00020F00400086219E0E06805280BD14B48CA
:101BC000006A40F00400494908620846006A40F093
:101BD000010008620AE04548006A20F0010043491C
:101BE00008620846006A20F00400086200BFE0684E
:101BF000A0B1FFF7F1F8054609E0FFF7EDF8401B4B
:101C000041F28831884202D9032077E622E0374842
:101C1000006A00F002000028EFD012E0FFF7DCF8C5
:101C2000054608E0FFF7D8F8401B41F288318842AA
:101C300001D9032062E62D48006A00F00200002866
:101C4000F0D1012F05D12948C06920F080502749E3
:101C5000C86100BFE069C8B32448406800F00C00C8
:101C6000082860D0E069022848D100202049086691
:101C7000FFF7B2F8054606E0FFF7AEF8401B022872
:101C800001D903203AE61948006800F000700028E6
:101C9000F2D1206AB0F5803F07D11448406820F4A3
:101CA0000030A168084311494860D4E9080108439D
:101CB0000E49496821F4741108430C494860012019
:101CC0000B490866FFF788F8054607E03DE0FFF797
:101CD00083F8401B022801D903200FE6034800685F
:101CE00000F000700028F2D02FE000000010024049
:101CF000000042428004424200700040002014492B
:101D00000866FFF769F8054606E0FFF765F8401B2F
:101D1000022801D90320F1E50E48006800F00070A8
:101D20000028F2D111E0E069012800D1E6E5094878
:101D3000466806F48031206A814204D106F47011AD
:101D4000606A814201D00120D8E50020D6E500007C
:101D5000000042420010024070B504462546681E4D
:101D6000B0F1807F01D301200FE0681E4FF0E02129
:101D700048610F214FF0FF3001F086FD00204FF049
:101D8000E021886107200861002070BD704770471E
:101D900030B502460B4600BF92F83C00012801D145
:101DA000022030BD012082F83C0000BF022082F8F2
:101DB0003D00106844681068816824F07004186859
:101DC000044310684460104D1068A8420BD010689E
:101DD000B0F1804F07D00D4D1068A84203D00C4DD4
:101DE0001068A84205D121F08001586801431068AD
:101DF0008160012082F83D0000BF002082F83C0095
:101E000000BF00BFCDE70000002C014000040040EF
:101E10000008004010B504460CB9012010BD94F82C
:101E20003D0028B9002084F83C00204600F026F848
:101E3000022084F83D00211D206801F0B1FA012044
:101E400084F8460000BF84F83E0001213F20015580
:101E5000402001554120015500BF00BF012084F8FA
:101E6000420043200155442001554520015500BF43
:101E7000012084F83D000020D0E7000038B504467A
:101E80000D492068884215D100BF0C48806940F494
:101E900000600A4988610846806900F4006000908B
:101EA00000BF00BF002201211920FFF7ADFB192060
:101EB000FFF79AFB38BD0000002C014000100240E3
:101EC000014691F83D00012801D001207047022011
:101ED00081F83D000868C06840F001000B68D860D8
:101EE000124B086898420BD00868B0F1804F07D0B9
:101EF0000F4B0868984203D00E4B086898420CD1EB
:101F00000868806800F00702062A0CD0086800689C
:101F100040F001000B68186005E00868006840F0B8
:101F200001000B6818600020D0E70000002C014081
:101F300000040040000800402DE9F04104460D4631
:101F4000002700BF94F83C00012802D10220BDE820
:101F5000F081012084F83C0000BF022084F83D009D
:101F60002068866826F0770626F47F46206886601B
:101F70002868502833D00CDC202850D004DC0028FE
:101F80004BD0102851D149E0302849D040284CD1BD
:101F900039E060282DD0702807D0B0F5805F03D0DD
:101FA000B0F5005F41D10DE041E0D5E902136A6868
:101FB000206801F040FA2068866846F077062068BD
:101FC000866034E0D5E902136A68206801F033FACC
:101FD0002068806840F480402168886027E0EA68D3
:101FE0006968206801F0F8FA5021206801F02EFAA3
:101FF0001DE0EA686968206801F001FB6021206843
:1020000001F024FA13E0EA686968206801F0E4FA54
:102010004021206801F01AFA09E000BF00BF00BFAC
:102020002968206801F012FA01E0012700BF00BF13
:10203000012084F83D0000BF002084F83C0000BF70
:10204000384684E72DE9F04104460D4614B90120D5
:10205000BDE8F08194F83D0028B9002084F83C00E8
:10206000204600F051F8022084F83D002068806886
:1020700044F20701884321688860211D206801F02F
:102080008FF92068D0F80880206886692068076A80
:10209000286840EA080840F203308643A969A86826
:1020A00040EA0120064340F60C4086434FF2F00020
:1020B0008643E969E86840EA01200643286900018F
:1020C000296A40EA0130064327F0220769696868F7
:1020D00040EA011007432068C0F808802068866144
:1020E00020680762012084F8460084F83E00012140
:1020F0003F200155012084F8420043200155012072
:1021000084F83D000020A3E710B586B00446002007
:10211000029003900490059029492068884224D1B8
:1021200000BF2848C06940F002002649C86108463F
:10213000C06900F00200019000BF00BF00BF084668
:10214000806940F0040088610846806900F004005E
:10215000019000BF00BFC0200290002003900490B7
:1021600002A91948FEF7A2FC27E018492068884216
:1021700023D100BF1348C06940F004001149C86171
:102180000846C06900F00400019000BF00BF00BF16
:102190000846806940F0080088610846806900F0C0
:1021A0000800019000BF00BFC020029000200390F3
:1021B000049002A90648FEF779FC06B010BD0000A5
:1021C00000040040001002400008014000080040E8
:1021D000000C01402DE9F04304460D4694F83E60A2
:1021E0003F20075D94F84280432010F804906DB9B9
:1021F000012E02D1B8F1010F02D00120BDE8F08319
:10220000022084F83E0084F8420025E0042D0CD121
:10221000012F02D1B9F1010F01D00120EEE7022117
:102220003F2001554320015516E0012E07D1012F13
:1022300005D1B8F1010F02D1B9F1010F01D0012090
:10224000DCE7022084F83E0002213F2001550220F5
:1022500084F842004320015515B1042D0CD105E04E
:1022600001220021206801F0D5F810E001220421AC
:10227000206801F0CFF80AE001220021206801F077
:10228000C9F801220421206801F0C4F800BF00BF92
:102290002068006840F00100216808600020ADE778
:1022A000704710B5044620680069C0F34000D8B1FB
:1022B0002068C068C0F34000B0B16FF00200216830
:1022C0000861012020772068806900F0030018B1C0
:1022D0002046FFF7E5FF05E0204600F0D7F820464E
:1022E00000F0A0F90020207720680069C0F380008A
:1022F000D8B12068C068C0F38000B0B16FF00400AE
:1023000021680861022020772068806900F440700D
:1023100018B12046FFF7C4FF05E0204600F0B6F8EC
:10232000204600F07FF90020207720680069C0F384
:10233000C000D8B12068C068C0F3C000B0B16FF071
:10234000080021680861042020772068C06900F037
:10235000030018B12046FFF7A3FF05E0204600F078
:1023600095F8204600F05EF900202077206800698B
:10237000C0F30010D8B12068C068C0F30010B0B13D
:102380006FF0100021680861082020772068C0697C
:1023900000F4407018B12046FFF782FF05E02046A8
:1023A00000F074F8204600F03DF900202077206806
:1023B000006900F0010058B12068C06800F0010019
:1023C00030B16FF0010021680861204600F096F9F5
:1023D00020680069C0F3C01058B12068C068C0F31D
:1023E000C01030B16FF08000216808612046FFF70F
:1023F000CDFC20680069C0F3801058B12068C06827
:10240000C0F3801030B16FF04000216808612046B1
:1024100000F0B6F920680069C0F3401058B1206898
:10242000C068C0F3401030B16FF02000216808612F
:102430002046FFF7ACFC10BD10B586B00446002066
:1024400002900390049005902068B0F1804F16D15F
:1024500000BF0C48806940F004000A4988610846C2
:10246000806900F00400019000BF00BF0C200290C2
:1024700002200390059002A90348FEF717FB06B05F
:1024800010BD0000001002400008014070472DE917
:10249000F04104460D461646002700BF94F83C0064
:1024A000012802D10220BDE8F081012084F83C001F
:1024B00000BF36B1042E1BD0082E31D00C2E5ED1B9
:1024C00045E02946206800F0CBFF2068806940F095
:1024D0000800216888612068806920F00400216874
:1024E000886120688069296908432168886148E01B
:1024F0002946206800F0E4FF2068806940F400600D
:10250000216888612068806920F480602168886182
:1025100020688069296940EA01202168886130E0EB
:102520002946206801F000F82068C06940F00800E2
:102530002168C8612068C06920F004002168C86172
:102540002068C069296908432168C86119E02946E3
:10255000206801F01DF82068C06940F4006021681F
:10256000C8612068C06920F480602168C861206863
:10257000C069296940EA01202168C86101E001279A
:1025800000BF00BF00BF002084F83C0000BF3846F9
:1025900089E710B504460CB9012010BD94F83D0040
:1025A00028B9002084F83C00204600F025F80220DD
:1025B00084F83D00211D206800F0F2FE012084F81F
:1025C000460000BF84F83E0001213F200155402015
:1025D00001554120015500BF00BF012084F8420091
:1025E00043200155442001554520015500BF0120DD
:1025F00084F83D000020D0E708B50168B1F1804FB4
:102600000DD100BF0649C96941F00101044AD161F9
:102610001146C96901F00101009100BF00BF08BD6A
:10262000001002407047000070B504460D4615B911
:1026300094F83E000BE0042D02D13F20005D06E03F
:10264000082D02D14020005D01E04120005D0128FD
:1026500001D0012070BD1DB9022084F83E000EE0BB
:10266000042D03D102213F20015508E0082D03D19C
:1026700002214020015502E00221412001550122A2
:102680002946206800F0C6FE19492068884201D119
:10269000012000E0002028B12068406C40F4004098
:1026A000216848641249206888420BD02068B0F144
:1026B000804F07D00F492068884203D00E49206818
:1026C00088420CD12068806800F00706062E0CD0E6
:1026D0002068006840F001002168086005E020687B
:1026E000006840F00100216808600020B2E70000A7
:1026F000002C0140000400400008004019498842B5
:102700002FD1194909680968C1F30011174A1160EE
:10271000174909680968C1F30011164A1160134985
:10272000096819B910490968496A03E00E4909683E
:10273000496A4942104A11600C490968012903D1CC
:102740000B490968496A03E009490968496A49422D
:102750000A4A11600021044A12685162044A126850
:102760005162704728010020B80100203800002085
:10277000000200203C000020400000204400002017
:10278000704710B504460CB9012010BDA06900B116
:1027900000E000BF94F8410028B9002084F8400010
:1027A000204600F029F8242084F841002068C06801
:1027B00020F400502168C860204600F035FF2068F2
:1027C000006920F49040216808612068406920F089
:1027D0002A00216848612068C06840F400502168E0
:1027E000C86000206064202084F8410084F8420022
:1027F0000020606300BFC8E710B586B00446002023
:1028000002900390049005901A49206888422ED1C6
:1028100000BF1948806940F4804017498861084624
:10282000806900F48040019000BF00BF00BF0846EF
:10283000806940F0040088610846806900F0040067
:10284000019000BF00BF48150290022003900320B2
:10285000059002A90948FEF729F94FF4806002901B
:1028600000200390049002A90448FEF71FF906B067
:1028700010BD000000380140001002400008014077
:1028800000BFFEE7014608684069C0F38020B0B190
:102890006FF480600A68506100200863202081F88E
:1028A0003D00002081F83E00086C40F00400086400
:1028B00000BF002081F83C0000BF012070470020CD
:1028C000FCE700002DE9F84304460F4615469946FB
:1028D000DDE908862068006840F4806021680860AF
:1028E0002068006840F48070216808604346002238
:1028F0004FF001112046009600F037F960B12068D2
:10290000006800F48070B0F5807F02D14FF4007051
:1029100020640320BDE8F88307F0FE002168086109
:10292000334642463E49204600F07EF908B1012078
:10293000F0E700BF00200090206840690090206808
:102940008069009000BF00BF32464146204600F03B
:102950002DFA50B1206C042805D12068006840F49D
:102960000070216808600120D4E7B9F1010F03D19C
:10297000E8B22168086117E0C5F307202168086103
:1029800032464146204600F011FA50B1206C04282E
:1029900005D12068006840F40070216808600120BB
:1029A000B8E7E8B22168086132464146204600F0A7
:1029B000FDF950B1206C042805D12068006840F46E
:1029C0000070216808600120A4E72068006840F4D6
:1029D000807021680860434600224FF001112046B4
:1029E000009600F0C2F858B12068006800F48070CA
:1029F000B0F5807F02D14FF400702064032089E796
:102A0000F8B240F0010021680861334642460449AB
:102A1000204600F009F908B101207BE7002079E7A2
:102A2000020001002DE9F843044688461546994600
:102A3000DDE908672068006840F48070216808605C
:102A4000334600224FF001112046009700F08DF828
:102A500060B12068006800F48070B0F5807F02D11A
:102A60004FF4007020640320BDE8F88308F0FE00F6
:102A7000216808613B4632462149204600F0D4F8DF
:102A800008B10120F0E700BF0020009020684069F5
:102A9000009020688069009000BF00BF3A46314630
:102AA000204600F083F950B1206C042805D120683D
:102AB000006840F40070216808600120D4E7B9F193
:102AC000010F03D1E8B22168086117E0C5F30720C0
:102AD000216808613A463146204600F067F950B156
:102AE000206C042805D12068006840F4007021683B
:102AF00008600120B8E7E8B2216808610020B3E768
:102B00000200010070B504460D46164625E0204639
:102B1000FFF7B8FE08B1012070BD681CE8B1FEF7F0
:102B20005BF9801BA84200D8BDB920684069C0F39A
:102B3000800090B900202063202084F83D00002010
:102B400084F83E00206C40F02000206400BF00208C
:102B500084F83C0000BF0120DEE720684069C0F334
:102B600080000028D3D00020D6E72DE9F0410446AC
:102B70000D4617461E46DDF8188038E0701CA8B3D5
:102B8000FEF72AF9A0EB0800B04200D876BBC5F3E7
:102B9000074001280AD120684069A9B20840A9B2BB
:102BA000884201D101200BE0002009E02068806903
:102BB000A9B20840A9B2884201D1012000E000205A
:102BC000B84214D100202063202084F83D0000206A
:102BD00084F83E00206C40F02000206400BF0020FC
:102BE00084F83C0000BF0120BDE8F081FFE7C5F399
:102BF000074001280AD120684069A9B20840A9B25B
:102C0000884201D101200BE0002009E020688069A2
:102C1000A9B20840A9B2884201D1012000E00020F9
:102C2000B842ABD00020DFE72DE9F04104460D4665
:102C300016461F4658E020684069C0F38020E8B17E
:102C40002068006840F40070216808606FF48060BC
:102C50002168486100202063202084F83D00002086
:102C600084F83E00206C40F00400206400BF002087
:102C700084F83C0000BF0120BDE8F081701C90B3D7
:102C8000FEF7AAF8C01BB04200D866BBC5F30740E8
:102C900001280AD120684069A9B20840A9B2884237
:102CA00001D101200BE0002009E020688069A9B271
:102CB0000840A9B2884201D1012000E0002090B96B
:102CC00000202063202084F83D00002084F83E008E
:102CD000206C40F02000206400BF002084F83C00FD
:102CE00000BF0120C8E7FFE7C5F3074001280AD16C
:102CF00020684069A9B20840A9B2884201D10120E8
:102D00000BE0002009E020688069A9B20840A9B260
:102D1000884201D1012000E0002000288BD0002053
:102D2000AAE770B504460D46164637E020684069AC
:102D3000C0F30010A0B16FF01000216848610020BE
:102D40002063202084F83D00002084F83E00206CA1
:102D5000206400BF002084F83C0000BF012070BD4B
:102D6000FEF73AF8801BA84200D8BDB92068406938
:102D7000C0F3801090B900202063202084F83D002B
:102D8000002084F83E00206C40F02000206400BF4A
:102D9000002084F83C0000BF0120E0E72068406983
:102DA000C0F380100028C1D00020D8E770B50446D9
:102DB0000D46164625E02046FFF764FD08B10120C8
:102DC00070BD681CE8B1FEF707F8801BA84200D868
:102DD000BDB920684069C0F3C01090B900202063DD
:102DE000202084F83D00002084F83E00206C40F054
:102DF0002000206400BF002084F83C0000BF0120B8
:102E0000DEE720684069C0F3C0100028D3D000205E
:102E1000D6E7000000B585B0002001900290039035
:102E2000049000BF2D48806940F010002B49886154
:102E30000846806900F01000009000BF00BF00BF8E
:102E40000846806940F0200088610846806900F0EB
:102E50002000009000BF00BF00BF0846806940F01E
:102E6000040088610846806900F00400009000BFFB
:102E700000BF00BF0846806940F00800886108462E
:102E8000806900F00800009000BF00BF00224FF4EE
:102E900000511348FDF79AFF00224FF4704111488A
:102EA000FDF794FF4FF400500190012002900020A4
:102EB00003900220049001A90948FDF7F7FD4FF4A3
:102EC00070400190012002900020039002200490A5
:102ED00001A90448FDF7EAFD05B000BD001002405D
:102EE00000100140000C014010B50B480B49086070
:102EF0000B484860002109488160C1604FF480415F
:102F00000161002141618161C1610162FDF76AFFD8
:102F100008B1FDF7C8FD10BD00540040D4000020EA
:102F2000801A060000B587B0002003900490059039
:102F300006900190029016481649086041F61F401D
:102F4000486000211348816042F20F71C160002186
:102F50000161416180218161FEF75CFF08B1FDF7ED
:102F6000A2FD4FF48050039003A90A48FEF7E4FF46
:102F700008B1FDF798FD00200190029001A90548D5
:102F8000FEF706FF08B1FDF78EFD07B000BD00009B
:102F9000002C01402801002000B589B000200790D6
:102FA00008901C216846FDF705F94FF080401B4949
:102FB0000860002048600021184881604FF47A7151
:102FC000C160002101618161FFF7E3FA08B1FDF7FB
:102FD0006AFD00200790089007A91048FEF7D8FE68
:102FE00008B1FDF760FD6020009000200190029084
:102FF0000490082269460948FFF749FA08B1FDF72D
:1030000052FD0C2269460548FFF741FA08B1FDF769
:103010004AFD0248FFF710FA09B000BD7001002018
:1030200000B58BB0242102A8FDF7C4F80020009061
:10303000019018481849086000204860002116488F
:1030400081604FF6FF71C160002101618161012043
:10305000029000200390012004900020059006902B
:10306000079001200890002009900A9002A90A48C0
:10307000FEF7E8FF08B1FDF716FD00200090019073
:1030800069460548FEF784FE08B1FDF70CFD0BB05C
:1030900000BD000000040040B801002000B58BB066
:1030A000242102A8FDF786F800200090019018481E
:1030B00018490860002048600021164881604FF6DA
:1030C000FF71C16000210161816101200290002037
:1030D00003900120049000200590069007900120A5
:1030E0000890002009900A9002A90A48FEF7AAFF5A
:1030F00008B1FDF7D8FC0020009001906946054812
:10310000FEF746FE08B1FDF7CEFC0BB000BD000097
:10311000000800400002002010B50B480B49086071
:103120004FF4E1304860002108488160C1600161CE
:103130000C21416100218161C161FFF722FB08B1CF
:10314000FDF7B1FC10BD000000380140480200202E
:1031500000BFFEE770B504462D492046FDF720FA72
:1031600001D22B4C05E02B492046FDF70FFA00D287
:10317000284C00212046FDF713FA22D22046FDF705
:10318000A3F925490968C8632046FDF79DF922493E
:103190000968086400224FF400512048FDF716FE2C
:1031A000012211031D48FDF711FE00224FF480415A
:1031B0001A48FDF70BFE0122D1031848FDF706FE61
:1031C00025E084F000452846FDF77EF9124909689C
:1031D000C86384F000452846FDF776F90E49096872
:1031E0000864012251030D48FDF7F0FD00224FF461
:1031F00080510A48FDF7EAFD012291030748FDF7D7
:10320000E5FD00224FF400410448FDF7DFFD70BDED
:1032100000007A4400007AC470010020000C0140D4
:1032200000BFFEE7002141618161C1610160416031
:103230008160C160014901617047000000401C4687
:1032400041618261C36170477047000008B5084959
:103250000968C9084FF47A72B1FBF2F14143009159
:1032600000BF00BF00994A1E00920029F9D108BD95
:103270007C000020704700002DE9F041FEF744F982
:103280001F48B0F90000FDF7E7F804461D4B224641
:103290001D4801681D4800F09CFA1D480168194846
:1032A0000068FCF79FFF0446FFF754FF19480068C9
:1032B000082805DA17480068401C164908601CE019
:1032C00015490968154A12688818FDF7D3F80746AA
:1032D0000022134BFDF74EF80546FDF709F90446A9
:1032E0002046FDF7B9F80546094A29460D4800F081
:1032F00057FA00200749086000BFBDE8F0810000D0
:1033000054000020600000204C00002094000020A9
:10331000640000206C0000204000002044000020D9
:103320000000E03FB400002000B58FB0282105A8C0
:10333000FCF740FF14216846FCF73CFF0120059094
:1033400000040690002007900120099002200C90B4
:10335000C1030D914FF4E0110E9105A8FEF7CAFAD2
:1033600008B1FDF7A0FB0F20009002200190002083
:1033700002904FF480600390002004900221684680
:10338000FEF794F908B1FDF78EFB0FB000BD704752
:1033900010B50248FEF785FF10BD0000280100208F
:1033A00010B50268184B984208D0B0F1804F05D094
:1033B000164B984202D0164B984203D122F070026D
:1033C0004B681A43104B984208D0B0F1804F05D09B
:1033D0000E4B984202D00E4B984203D122F4407219
:1033E000CB681A4322F080034C6943EA040202606E
:1033F0008B68C3620B688362034B984201D10B69EF
:1034000003630123436110BD002C01400004004010
:103410000008004030B501F01F05012404FA05F34F
:10342000046A9C430462046A01F01F0502FA05F570
:103430002C43046230BD30B50C46816821F47F41D5
:1034400042EA032525432943816030BD0A4681684D
:1034500021F0700142F007031943816070470000BA
:1034600030B5026A056A25F0010505624368846982
:1034700024F0700424F003040D682C4322F00202AF
:103480008D682A430D4DA84206D100BF22F00802E4
:10349000CD682A4322F00402084DA84207D123F444
:1034A000807323F400734D692B438D692B43436074
:1034B00084614D684563026230BD0000002C01400C
:1034C00030B5026A056A25F0100505624368846913
:1034D00024F4E04424F440740D6844EA052422F006
:1034E00020028D6842EA05120E4DA84207D100BFA6
:1034F00022F08002CD6842EA051222F04002094D16
:10350000A84209D123F4806323F400634D6943EAA0
:1035100085038D6943EA8503436084614D68856353
:10352000026230BD002C014030B5026A056A25F404
:10353000807505624368C46924F0700424F00304B4
:103540000D682C4322F400728D6842EA05220F4D6B
:10355000A84207D100BF22F40062CD6842EA0522EA
:1035600022F48062094DA84209D123F4805323F448
:1035700000534D6943EA05138D6943EA051343601F
:10358000C4614D68C563026230BD0000002C01407B
:1035900030B5036A056A25F4805505624468C2693E
:1035A00022F4E04222F440720D6842EA052223F43C
:1035B00000538D6843EA0533064DA84204D124F434
:1035C00080444D6944EA85144460C2614D680564D5
:1035D000036230BD002C014030B50B461446026A30
:1035E000056A25F001050562816921F0F00141EAD3
:1035F000041122F00A021A438161026230BD30B523
:103600000B461446026A056A25F0100505628169B9
:1036100021F4704141EA043122F0A00242EA03128F
:103620008161026230BD000070B5044621680969FD
:1036300021F44051E2681143226811612269A168B6
:103640001143626941EA02052168C96841F20C62CE
:10365000914329432268D1602168496921F440716E
:10366000A2691143226851612D4A2168914202D119
:10367000FEF7F8F801E0FEF7E5F800EBC00101EB1A
:10368000001162689200B1FBF2F100EBC00202EBA4
:10369000001263689B00B2FBF3F26423B2FBF3F207
:1036A00002EBC20303EB0212A1EB8201322202EB16
:1036B00001116422B1FBF2F101F0F00100EBC00254
:1036C00002EB001263689B00B2FBF3F26423B2FBCF
:1036D000F3F201EB021200EBC00101EB0011636891
:1036E0009B00B1FBF3F100EBC00303EB0013666832
:1036F000B600B3FBF6F36426B3FBF6F303EBC306A5
:1037000006EB0313A1EB8301322303EB01116423C6
:10371000B1FBF3F101F00F0111442268916070BD1B
:103720000038014000F018F809E0054A054906484C
:1037300000F098FC054A0649064800F0F7FDF4E75A
:10374000500000204C0000204800002058000020BD
:10375000560000205400002010B50B48FFF762FD12
:103760000A4B00220A490848FFF76AFD0948FFF79B
:1037700059FD094B002209490648FFF761FD00F099
:10378000FDFD00F07BFD10BD940000209A9919BF4B
:103790000000BE42B4000020CDCCCC3D0000A041D2
:1037A0002DE9F04104460E46154631462068FCF7E7
:1037B0006BFD6060D4E90101FCF766FD07462B460E
:1037C0003A463146204600F004F86068A060BDE843
:1037D000F0812DE9F05F04460F4615461E46394636
:1037E0002068FCF751FD60606168E068FCF7FAFC56
:1037F000E060D4E90301FCF7D3FE02D22069E06067
:103800000BE0206980F000484046E168FCF7C8FE04
:1038100003D2206980F00040E0602946E069FCF7AF
:1038200039FD8146E168A069FCF734FD8246616894
:103830006069FCF72FFD83465146FCF7D3FC8046B8
:103840004946FCF7CFFC3060BDE8F09F00BFFEE7C3
:10385000490050EAC12018BF04204A0D18BF40F0AB
:10386000010040F2FF72B2EB515F08BF40F002006E
:10387000012808BF0520704702480068C0F30220F5
:10388000704700000CED00E010B5002804DB0A07CB
:10389000130E054A135406E00A07140E034A00F0FB
:1038A0000F031B1FD45410BD00E400E018ED00E02E
:1038B0002DE9F0414F1E00EBC7010446D1E900019C
:1038C00015461E4637F006020DD02A463346FCF751
:1038D00051FD7F1E04EBC703D3E90023FCF72FFF44
:1038E00037F00602F1D1022F25D0042F13D0062F76
:1038F00018BFBDE8F0812A463346FCF73BFDD4E90A
:103900000A23FCF71CFF2A463346FCF733FDD4E9B3
:103910000823FCF714FF2A463346FCF72BFDD4E9B5
:103920000623FCF70CFF2A463346FCF723FDD4E9B7
:103930000423FCF704FF2A463346FCF71BFDD4E9B9
:103940000223FCF7FCFE2A463346FCF713FDD4E9BC
:103950000023BDE8F041FCF7F2BE0122FDF705B8F7
:10396000FCF7EDBE0022134610461146FCF78EBF51
:10397000024A00201107FCF7F8BF000001FDFFFF1D
:1039800002E008C8121F08C1002AFAD17047704728
:10399000002001E001C1121F002AFBD17047000086
:1039A0000149086070470000800000202DE9FE4FAB
:1039B00006460F460025684601F032FC002442E02E
:1039C00056F8240057F82410A0EB010ABAF1000FB2
:1039D00001DB514601E0CAF100010846FCF73CFD5D
:1039E00083464FF08F41FCF787FC80465DF824004A
:1039F0000021FCF7CBFD16D05DF824104046FCF703
:103A00007BFC82464FF07E51FCF73EFC814629F05C
:103A1000004A0F48416A5046FCF7C2FD12D201200D
:103A2000A04005430EE00A48C1694046FCF7AEFDE0
:103A300005D30748016A4046FCF7B2FD02D20120D7
:103A4000A0400543641C032CBADB2846BDE8FE8F6A
:103A5000686900082DE9F04D8D4F21F0004A86B0CD
:103A600005460C46BA452ADBAAEB070028430AD0D4
:103A70008848824501DC1AD1CDB106B02846BDE8A0
:103A8000F04DFFF76ABF844A844B2846FCF772FC6E
:103A900007460E46824A834B28462146FCF76AFCBD
:103AA00006B03A463346BDE8F04DFCF748BE01206B
:103AB000FFF776FF06B0BDE8F04DFFF753BF7A4839
:103AC000824542DABAF1795F0BDA2846FFF7C0FE89
:103AD000042808BFFFF74CFF284606B02146BDE882
:103AE000F08D2A460B461046FCF744FC83460246FE
:103AF0006E480E460B4606217844FFF7D9FE5A461B
:103B00003346FCF737FC804669488A465A463346B6
:103B100004217844FFF7CCFE5A463346FCF72AFCD2
:103B200000223B46FCF70BFE02460B464046514640
:103B3000FCF7ACFE2A462346FCF71CFC06B02A46DE
:103B40002346BDE8F04DFCF7FABD284624F00041BD
:103B500000223D463B46FCF796FE4FF0FF32FCF755
:103B600004FF0646024653480F460B46062178449A
:103B7000FFF79EFE32463B46FCF7FCFBCDE9000119
:103B80004D4832463B4604217844FFF791FE3246C9
:103B90003B46FCF7EFFB00222B46FCF7D0FD8346AB
:103BA00002913046394602F0A5FE804643480D4654
:103BB000504517DCDDE900015A46029BFCF766FE22
:103BC00042462B46FCF7D6FB42462B46FCF7B7FD98
:103BD0000122FCF7CAFE304A304BFCF751FE304A56
:103BE000304B4CE04FF0000A52460B464046FCF783
:103BF000A6FDCDE9031052462B4610461946FCF7A8
:103C0000B9FB32463B46FCF73EFEDDE90332FCF7EA
:103C10003DFE06460F46DDE900015A46029BFCF7D1
:103C200035FE83460091012230463946FCF79DFE61
:103C3000194A1A4BFCF727FE06460F46012240465A
:103C40002946FCF792FE5A46009BFCF793FB32464E
:103C50003B46FCF715FE06460F4601225046294614
:103C6000FCF783FE0E4DDFF858802A464346FCF7EA
:103C70000AFE32463B46FCF706FE2A464346FCF760
:103C800002FE002CD8BF81F0004106B0BDE8F08DE7
:103C90000000F03F0000F07F075C143326A6913C43
:103CA000182D4454FB21F93F0000E03FB43A0000D6
:103CB000CA3A00003E3A0000543A00003333EF3F66
:103CC000FB21E93F2DE9F84F04460D4621F0004065
:103CD00000917349814211DC7249884201DC06D1AE
:103CE0002CB120462946BDE8F84FFFF736BE6E4896
:103CF000002DCCBF6D496E49BDE8F88F6D498142FA
:103D000011DD6D498142D8BF4FF0FF366DDD204691
:103D10002946FFF79DFD042808BFFFF729FE20462E
:103D20002946BDE8F88F6549654F25F00045814279
:103D300033DD6449814219DD002632464FF080436D
:103D400020462946FCF7FBFC80468A460122204695
:103D50002946FCF70AFE00223B46FCF791FD42464D
:103D60005346FCF793FD04460D463EE00126002233
:103D7000BA463B4620462946FCF7E1FC80460F4602
:103D80000022534620462946FCF77AFD42463B4630
:103D9000FCF77CFD04460D4627E04B4981421BDDC4
:103DA000DFF828A102260022534620462946FCF7C8
:103DB000E1FA00223B46FCF7C2FC80460F46002297
:103DC000534620462946FCF75BFD42463B46FCF73E
:103DD0005DFD04460D4608E0032622462B460020E2
:103DE0003B49FCF753FD04460D4622462B46104640
:103DF0001946FCF7BFFA8B46824602460B46FCF793
:103E0000B9FA07460246334888460B4606217844ED
:103E1000FFF74EFD52465B46FCF7ACFA82462E4851
:103E20008B463A46434605217844FFF741FD3A4622
:103E30004346FCF79FFA02460B46002E5046594671
:103E40000CDAFCF77CFC22462B46FCF793FA01B017
:103E500022462B46BDE8F04FFCF715BDFCF76FFC82
:103E600022462B46FCF786FA1C4A7A4402EBC6032C
:103E7000D3E90023FCF704FD22462B46FCF700FDA6
:103E8000174A7A4402EBC603D3E90023FCF7FBFC94
:103E9000009A002AB8BF81F00041BDE8F88F000009
:103EA000000010440000F07F182D4454FB21F93F1E
:103EB000FB21F9BF0000DC3F0000203E0000F33F83
:103EC0000000F03F0000E63F008003400000F83FA4
:103ED0000000F0BF5638000014380000B237000070
:103EE0007A3700002DE9F04D9446CCF1000423F020
:103EF00000464CEA0404524F46EAD4749A46884677
:103F000021F00042BC4206D8454240EA050442EA9C
:103F1000D474BC4204D9BDE8F04D6246FFF720BD21
:103F2000AAF14055A5F17F6555EA0C040BD0022497
:103F300004EAAA74434DDFF810E144EAD87452EA67
:103F4000000B04D00CE0BDE8F04DFFF7BBBE002C29
:103F500014BF012CBDE8F08D022C30D0032C32D0E0
:103F600056EA0C0B0AD0BE4220D1BA4209D126F043
:103F7000804622F080423346114617E000291ADBC2
:103F800025E0DFF8C8B0FB44002C04BFDBE90001EA
:103F9000BDE8F08D012C02BFDBE9000181F000419A
:103FA000BDE8F08D022C0AD0032C0CD0BA4212D1FD
:103FB000B8F1000F0BDA23482549BDE8F08D2846FB
:103FC0002449BDE8F08D28467146BDE8F08D1D48B6
:103FD0002149BDE8F08D921B12153C2AC4BF194837
:103FE0001D490EDCBAF1000FBEBF12F13C0F0020DC
:103FF000014606DB6246FCF749FC21F00041FFF771
:1040000061FE002C08BFBDE8F08D012C04BF81F0DB
:104010000041BDE8F08D114A114B022C07D0FCF78E
:104020002FFC2A46BDE8F04D0A4BFCF729BCFCF7F3
:1040300027FC2A46BDE8F04D064BFCF724BC0000E7
:104040000000F07F182D4454FB2109C00E370000FA
:10405000FB21F9BFFB210940FB21F93F075C143329
:1040600026A6A13C2DE9F04F99B004460D46164610
:104070004FF07E574FF000084FF000094FF0000A54
:1040800012A814A913AB0EAACDE9001015A917A800
:1040900000F06CFCBDF8500000F4807000287CD06B
:1040A0000E98FCF7D9F983464FF09D41FCF724F9AF
:1040B00007460F98FCF7D0F983464FF09D41FCF777
:1040C0001BF980461098FCF7C7F983464FF09D41D5
:1040D000FCF712F981461198FCF7BEF983464FF0C0
:1040E0009D41FCF709F9824639464FF08040FCF7C4
:1040F000D1F849460590FCF7CDF8414607904FF0BE
:104100004040FCF7C7F851460590FCF7C3F806900D
:104110000799FCF767F88346FCF709FACDE908012F
:10412000FFF798FC4FF06632534BCDE90A01FCF7DC
:1041300021F9CDE90C01FCF70DFA206049464FF05A
:104140008040FCF7A7F849460290FCF7A3F84146E7
:1041500004904FF04040FCF79DF841460290FCF778
:1041600099F803900499FCF78FF883464FF07E513D
:10417000FCF738F80590FCF7DAF9CDE90801394683
:104180004FF08040FCF786F841460390FCF782F838
:10419000494604904FF0804000E069E0FCF77AF86F
:1041A00051460390FCF776F883460499FCF71AF819
:1041B0000590FCF7BCF9CDE90601DDE90823FFF71E
:1041C00091FE4FF066322C4BCDE90A01FCF7D2F894
:1041D000CDE90C01FCF7BEF9286051465046FCF7CA
:1041E00059F8494604904846FCF754F84146039074
:1041F0004046FCF74FF8394601903846FCF74AF83C
:1042000000900199FBF7EEFF02900399FCF73CF850
:1042100083460499FCF738F80590FCF788F9CDE956
:10422000080151463846FCF735F8494604904046A7
:10423000FCF730F803900499FBF7D4FF4FF080416E
:104240000590FCF727F88346FCF771F9CDE90601E4
:10425000DDE90823FFF746FE4FF06632064BCDE955
:104260000A01FCF787F8CDE90C01FCF773F930601F
:1042700019B0BDE8F08F000066A64C402DE9F04172
:10428000002001F05BFCC4B2782002F043FA204425
:10429000C4B2782001F040FB2044C4B2642002F094
:1042A000EBF92044C4B200F055FB2044C4B2194DD0
:1042B000284601F0CFFA0646E81C01F0CBFA46EAA0
:1042C000C00086B2A81D01F0C5FA46EA801086B289
:1042D00000BF3746384600F099FD2044C4B240F292
:1042E000731000F0DFF92044C4B2642000F0BEFC7B
:1042F0002044C4B2012002F0BBF82044C4B200F054
:104300009AF82044C4B214B10120BDE8F081002025
:10431000FBE700002C00002010B504460CB901207A
:1043200010BDFCF759FD20600020F9E72DE9FC41A4
:1043300004460D4616466B4606224321682000F0CF
:1043400057F80746BFB99DF801009DF8001040EAF4
:10435000012000B220809DF803009DF8021040EA81
:10436000012000B228809DF805009DF8041040EA65
:10437000012000B230803846BDE8FC8108B500F06D
:10438000F5F8022000F0AAF8002000F09EF8322094
:1043900000F0CAF800223821682000F00FF900224E
:1043A0006A21682000F00AF900222321682000F029
:1043B00005F980223721682000F000F96A4675214E
:1043C000682000F02DF89DF80000682801D0012039
:1043D00008BD01226B21682000F0F0F800226C215A
:1043E000682000F0EBF8322000F09EF80020EFE7A4
:1043F000FEB504460D4616461F464FF47A7061001E
:1044000001232A46CDE9007602900448FCF7D2FD4C
:1044100008B90020FEBD0220FCE70000D400002007
:1044200070B505460E4614462346012231462846FD
:10443000FFF7DEFF70BD70B588B002A905A801F0D6
:10444000A1FE0446032C3ED101A801F017FB0598FC
:10445000FCF702F806460199FBF71CFF0546FCF73E
:104460001AF805900698FBF7F7FF06460199FBF747
:1044700011FF0546FCF70FF806900798FBF7ECFFD5
:1044800006460199FBF706FF0546FCF704F807907E
:1044900005A800F023FC684601F09CFABDF8001066
:1044A000029848430290BDF80010039848430390D7
:1044B000BDF8001004984843049002A800F03CFBAB
:1044C000002008B070BD0120FBE710B50446E006EF
:1044D000020E1C21682000F071F810BD10B50446D2
:1044E000E006020E1B21682000F068F810BD70B5D0
:1044F0000546BC2D01DB012410E0622D01DB022406
:104500000CE02A2D01DB032408E0142D01DB042438
:1045100004E00A2D01DB052400E0062422461A21CE
:10452000682000F04BF870BD70B50446B4F57A7F92
:1045300001DD4FF47A74042C00DA04244FF47A700D
:1045400090FBF4F0401EC6B232461921682000F0FC
:1045500035F805460DB1284670BD6010FFF7C7FF5E
:1045600005460DB12846F7E70020F5E710B5802293
:104570006B21682000F022F8642000F05BF8002234
:104580006B21682000F01AF810BD0000FEB504464B
:104590000D4616461F464FF47A70610001232A46E5
:1045A000CDE9007602900448FCF7B6FE08B9002079
:1045B000FEBD0220FCE70000D400002037B5044611
:1045C0000D4602AB012229462046FFF7DFFF3EBD24
:1045D0002DE9F0410446E07800F0C006E07800F0F4
:1045E0003F05607800F0010098B1EF102846E91708
:1045F00005EB5171C910A5EBC101491C01F0FF0881
:104600000B48006820B10A48414602683846904786
:1046100000BF607800F0080030B10548406818B16C
:10462000B011034A516888470020BDE8F0810000BE
:104630008400002010B5044603E04FF47A7000F0C7
:1046400005F82000A4F10104F7D110BD014605E0F2
:10465000002001E0421CD0B20A28FBDB0A00A1F1D5
:104660000101F5D1704738B5044664B120208DF8BA
:10467000000028208DF8010030208DF8020038203D
:104680008DF8030004E0A32204216846FBF78BFDAC
:104690006A46042140F69E2002F0A4F801F08EFC48
:1046A00038BD00003EB5044602208DF80000CA2047
:1046B0008DF80100E3208DF8020009208DF8030039
:1046C0006A460421682002F08DF8A3208DF80000CE
:1046D00004F0400048B1C0208DF80100C8208DF8DA
:1046E0000200C2208DF8030006E0A3208DF801002F
:1046F0008DF802008DF8030004F4C07048B1C420A6
:104700008DF80400CC208DF80500C6208DF8060039
:1047100006E0A3208DF804008DF805008DF8060052
:10472000A3208DF807008DF808008DF809006A466F
:104730000A2140F6A72002F055F804F0030018B152
:1047400020208DF8000002E0D8208DF800006A4695
:10475000012140F6B62002F045F804F0200018B11F
:10476000012000F0ADF802E0002000F0A9F804F408
:10477000C07008B304F4807060B1B2208DF80000FE
:104780008B208DF80100B6208DF802009B208DF85B
:1047900003000BE0B0208DF8000080208DF80100B0
:1047A000B4208DF8020090208DF803006A460421A1
:1047B00040F6A22002F016F804F0010020B3F82021
:1047C0008DF800006A4601214FF40B6002F00AF8F0
:1047D000FA21072000F02EFC072000F0F5FB012055
:1047E00000F015FC642000F0F5FC4FF4FA7000F0C6
:1047F00004FDC821304800F0A5FB282000F0BEFBD6
:104800000A2000F0CEFB08E0D8208DF800006A46B0
:1048100001214FF40B6001F0E5FF04F0020018B134
:10482000D9208DF8000002E0D8208DF800006A46FB
:10483000012140F23D7001F0D5FF04F0040018B1F1
:10484000012000F069F802E0002000F065F804F0B3
:10485000100018B10120FFF706FF02E00020FFF76B
:1048600002FF44F008001549488101F0A7FB002031
:104870001249887304F0400018B10846807B801DFF
:10488000887304F4C07020B10C48807B801D0B49F4
:10489000887304F0140020B10848807B1030074969
:1048A000887304F0030020B10448807B001D034995
:1048B000887300203EBD000009E3CA028400002086
:1048C0003EB504466CB10EA1D1E900208968CDE95E
:1048D000002002916A4609214FF4976001F082FF9F
:1048E0003EBD0AA2D2E900109268CDE90102009112
:1048F0006A4609214FF4976001F074FFF0E7000069
:10490000B8AAB38DB4980D355D000000B8AAAAAA64
:10491000B088C3C5C700000038B5044664B1C020E4
:104920008DF80000C2208DF80100C4208DF802002F
:10493000C6208DF8030004E08B2204216846FBF7B3
:1049400032FC6A46042140F6982001F04BFF01F04A
:1049500035FB38BD10B5C8234FF48062024940F6DC
:10496000F63001F0BFF910BD906900082DE9F04F55
:104970008DB00746884615469946DDE9166B00243A
:10498000002030806B49887B5A4605A901F076FAF1
:1049900018B1601E0DB0BDE8F08F6648807A00F057
:1049A0001400002867D09DF8140000069DF815102B
:1049B00040EA01409DF8161040EA01209DF81710CA
:1049C000084328609DF8180000069DF8191040EA79
:1049D00001409DF81A1040EA01209DF81B10084381
:1049E00068609DF81C0000069DF81D1040EA01401B
:1049F0009DF81E1040EA01209DF81F100843A86092
:104A00009DF8200000069DF8211040EA01409DF825
:104A1000221040EA01209DF823100843E86004F1C9
:104A20001000C4B228680014019068680014029055
:104A3000A86800140390E8680014049001984043AB
:104A4000029901FB0100039901FB0100049901FB9C
:104A5000010ABAF1706F02DBBAF1885F05DD01F07F
:104A6000ADFA00203080401E94E7B6F9000040F413
:104A70008070308000BF2F48807A00F0400020B363
:104A800005A9601C085C095D40EA012000B2A8F895
:104A9000000005A9E01C095C05AAA01C105C41EA05
:104AA000002000B2A8F8020005A9601D095C201DC5
:104AB000105C41EA002000B2A8F80400A01DC4B2B6
:104AC000B6F9000040F0080030801A48408900F430
:104AD000C07008B305A9601C085C095D40EA0120AC
:104AE00000B2388005A9E01C095C05AAA01C105C76
:104AF00041EA002000B2788005A9601D095C201DF4
:104B0000105C41EA002000B2B880A01DC4B2B6F922
:104B1000000040F0700030800648807A00F003000A
:104B200018B105A90819FFF753FD4846FFF7F4FB34
:104B300000202FE78400002070B588B0064601A849
:104B400000F048FFBDF804000021C90341EA5045C8
:104B5000C40300BF4448007A00F0030056F8200068
:104B600005904148007A00F0040010B105984042D9
:104B700005903D48007AC0F3C10056F82000069029
:104B80003948007A00F0200010B1069840420690A3
:104B90003548007AC0F3811056F82000079032485B
:104BA000008900F4807010B1079840420790059882
:104BB000C117A0FB042301FB043100FB0510810099
:104BC00041EA927005900698C117A0FB042301FBEF
:104BD000043100FB0510810041EA927006900798AD
:104BE000C117A0FB042301FB043100FB0510810069
:104BF00041EA927007900598000E8DF8080005981C
:104C0000000C8DF809000598000A8DF80A00059837
:104C1000C0B28DF80B000698000E8DF80C000698B7
:104C2000000C8DF80D000698000A8DF80E0006980D
:104C3000C0B28DF80F000798000E8DF8100007988D
:104C4000000C8DF811000798000A8DF812000798E3
:104C5000C0B28DF8130002AA0C214FF4257001F0A8
:104C6000C1FD08B070BD00008400002030B585B0E3
:104C7000044616A207CA02AB07C3C82C03DD4FF0D7
:104C8000FF3005B030BDC82090FBF4F0401E85B267
:104C9000280A8DF80000E8B28DF801006A4602216A
:104CA00040F2162001F09EFD10B14FF0FF30E8E712
:104CB00002AA0C2140F6C12001F094FD10B14FF082
:104CC000FF30DEE7044884810020DAE7FEF2ABC45F
:104CD000AAF1DFDFBBAFDFDF840000201FB5044691
:104CE0004848007A00F0030054F82000019045483D
:104CF000007A00F0040010B1019840420190414850
:104D0000007AC0F3C10054F8200002903D48007AB8
:104D100000F0200010B10298404202903948007A19
:104D2000C0F3811054F8200003903648008900F445
:104D3000807010B10398404203903349019880FB82
:104D40000101800F40EA810001902F49029880FB09
:104D50000110820042EA917002902B49039880FB77
:104D60000110820042EA917003900198000E8DF8C4
:104D700000000198000C8DF801000198000A8DF8E0
:104D800002000198C0B28DF803006A4604214FF476
:104D9000747001F027FD18B14FF0FF3004B010BD62
:104DA0000298000E8DF800000298000C8DF80100AA
:104DB0000298000A8DF802000298C0B28DF8030034
:104DC0006A4604214FF4757001F00CFD10B14FF0EC
:104DD000FF30E3E70398000E8DF800000398000C05
:104DE0008DF801000398000A8DF802000398C0B204
:104DF0008DF803006A4604214FF4767001F0F2FC4E
:104E0000CCE700008400002009E3CA0210B586B098
:104E1000044647A00068039046A00068029046A0A0
:104E20000068019045A00068009004F0030003A909
:104E3000085C8DF8140003A8C4F3C101405C8DF830
:104E4000150003A8C4F38111405C8DF8160004F02E
:104E5000030002A9085C8DF8100002A8C4F3C10188
:104E6000405C8DF8110002A8C4F38111405C8DF8FC
:104E7000120005AA032140F2264001F0B3FC18B14C
:104E80004FF0FF3006B010BD04AA032140F22A40C3
:104E900001F0A8FC10B14FF0FF30F3E70198059046
:104EA0000098049004F0040058B19DF8140040F0FC
:104EB00001008DF814009DF8100040F001008DF8FD
:104EC000100004F0200058B19DF8150040F00100DA
:104ED0008DF815009DF8110040F001008DF81100CB
:104EE00004F4807058B19DF8160040F001008DF870
:104EF00016009DF8120040F001008DF8120005AA7E
:104F000003214FF4886001F06DFC10B14FF0FF30C9
:104F1000B8E704AA032140F2314001F063FC10B16C
:104F20004FF0FF30AEE7064804810020AAE70000FA
:104F30004CCD6C000CC92C00365676002646660017
:104F400084000020F8B505460E464FF47A7095FBB4
:104F5000F0F000FB06F4200E8DF80000200C8DF818
:104F60000100200A8DF80200E0B28DF803006A46C5
:104F700004214FF4AE7001F035FCF8BD38B504469D
:104F8000052094FBF0F084B220128DF80000E0B20E
:104F90008DF801006A4602214FF4AD7001F022FC49
:104FA00038BD38B50446052094FBF0F084B22012D9
:104FB0008DF80000E0B28DF801006A4602214FF43E
:104FC000AC7001F00FFC38BD38B5044600200090ED
:104FD00004F0010020B19DF8000040F03000009086
:104FE00004F0020020B19DF8000040F00C00009099
:104FF00004F0040020B19DF8000040F00300009090
:105000006A4601214FF4A47001F0ECFB38BD38B5BD
:105010000446012C01DA012402E0042C00DD042402
:10502000601EC0B200906A46012140F24F1001F0AC
:10503000D9FB38BD2DE9FC4706460F4606F00700B0
:1050400010B1B7F5C86F03DD4FF0FF30BDE8FC8746
:105050003846FBF70AFA81465949FBF74DF9804675
:10506000684600F091FC9DF80000022806D0042854
:1050700016D0082826D0102848D135E04FF08D41B1
:105080004046FBF707F98146FBF71EFA84B24D490B
:105090004046FBF7FFF88146FBF716FA85B238E089
:1050A0004FF08C414046FBF7F5F88146FBF70CFAD0
:1050B00084B245494046FBF7EDF88146FBF704FA18
:1050C00085B226E04FF08B414046FBF7E3F881467E
:1050D000FBF7FAF984B23D494046FBF7DBF881461D
:1050E000FBF7F2F985B214E04FF08A414046FBF736
:1050F000D1F88146FBF7E8F984B235494046FBF721
:10510000C9F88146FBF7E0F985B202E04FF0FF30C5
:105110009CE700BF20128DF80400E0B28DF8050076
:1051200028128DF80600E8B28DF8070006F001009D
:10513000A0B101AA02214FF4EA7001F053FB10B1B3
:105140004FF0FF3082E70DF1060202214FF492701A
:1051500001F048FB10B14FF0FF3077E706F0020096
:10516000A0B101AA02214FF4EC7001F03BFB10B199
:105170004FF0FF306AE70DF1060202214FF4947000
:1051800001F030FB10B14FF0FF305FE706F0040094
:10519000A0B101AA02214FF4EE7001F023FB10B17F
:1051A0004FF0FF3052E70DF1060202214FF49670E6
:1051B00001F018FB10B14FF0FF3047E7002045E742
:1051C00000004843000040460000C0450000404544
:1051D0000000C04438B50446052094FBF0F085B2C9
:1051E00028128DF80000E8B28DF801006A4602210D
:1051F0004FF4EF7001F0F6FA38BD38B504460520DB
:1052000094FBF0F085B228128DF80000E8B28DF81A
:1052100001006A4602214FF4ED7001F0E3FA38BD57
:105220007CB5054628494968087801AB04220D2160
:10523000FFF7DEF808B107207CBD9DF80700C0F33A
:1052400001109DF8041001F0E00140EAE1008DF842
:1052500000009DF80700C0F381009DF8051001F0E3
:10526000E00140EAE1008DF801009DF8070000F040
:1052700003009DF8061001F0E00140EAE1008DF81E
:10528000020000241CE01DF8040018B9002045F8B5
:10529000240013E00D4845F8240006E055F82400EA
:1052A0000B49FAF7F7FF45F824001DF80400401EEB
:1052B000C0B20DF804000028F0D100BF601CC4B2D9
:1052C000032CE0DB0020B7E7000000207B14AE3E9B
:1052D0001D5A843F2DE9F04F87B005460C46914694
:1052E00001208DF8100000208DF81100FE4A126890
:1052F000917CFD4A5268107804AB0222FFF746F910
:1053000020B14FF0FF3007B0BDE8F08FC820FFF7A5
:1053100091F900208DF81000F34A1268D17BF24A0F
:105320005268107804AB0122FFF730F910B14FF04A
:10533000FF30E8E7EC4A12685179EB4A526810787E
:1053400004AB0122FFF722F910B14FF0FF30DAE78A
:10535000E54A1268917CE44A5268107804AB012255
:10536000FFF714F910B14FF0FF30CCE7DE4A1268B6
:10537000D17DDD4A5268107804AB0122FFF706F9AF
:1053800010B14FF0FF30BEE7D74A12681179D64A04
:105390005268107804AB0122FFF7F8F810B14FF013
:1053A000FF30B0E70C208DF81000CF4A1268117959
:1053B000CD4A5268107804AB0122FFF7E7F810B12C
:1053C0004FF0FF309FE70F20FFF734F9C648806A9F
:1053D000407A8DF81000C44A12689178C24A526827
:1053E000107804AB0122FFF7D1F810B14FF0FF3075
:1053F00089E7BD48806A007A8DF81000BA4A1268C1
:105400005178B94A5268107804AB0122FFF7BEF810
:1054100010B14FF0FF3076E7B9F1000F07D0B24876
:10542000806A807A40F0E0008DF8100004E0AE4819
:10543000806A807A8DF81000AB4A12689179AA4A86
:105440005268107804AB0122FFF7A0F810B14FF0BA
:10545000FF3058E7B9F1000F07D0A348806AC07A3F
:1054600040F0E0008DF8100003E0A048C07A8DF80D
:1054700010009D4A1268D1799B4A5268107804AB9B
:105480000122FFF783F810B14FF0FF303BE7B9F18D
:10549000000F02D0C820FFF7CDF840208DF8100093
:1054A000914A12681179904A5268107804AB01222F
:1054B000FFF76CF810B14FF0FF3024E778208DF83B
:1054C0001000894A12685179874A5268107804ABF3
:1054D0000122FFF75BF810B14FF0FF3013E783496B
:1054E0008889FFF7A7F800208DF810007E4A12681F
:1054F00051797D4A5268107804AB0122FFF746F8D3
:1055000010B14FF0FF30FEE6774A1268917A764A82
:105510005268107804AB0222FEF76AFF10B14FF018
:10552000FF30F0E69DF811009DF8101040EA012BC5
:105530000C209BFBF0F0C6B20020A86068602860D9
:10554000A06060602060824665E0674A1268D17A98
:10555000654A5268107804AB0C22FEF749FF10B17F
:105560004FF0FF30CFE69DF811009DF8101040EA93
:10557000012000B2ADF808009DF813009DF812104C
:1055800040EA012000B2ADF80A009DF815009DF830
:10559000141040EA012000B2ADF80C00BDF908106B
:1055A000206808442060BDF90A1060680844606003
:1055B000BDF90C10A0680844A0609DF817009DF884
:1055C000161040EA012000B2ADF800009DF8190065
:1055D0009DF8181040EA012000B2ADF802009DF8D5
:1055E0001B009DF81A1040EA012000B2ADF804003B
:1055F000BDF90010286808442860BDF902106868E9
:1056000008446860BDF90410A8680844A8600AF15D
:10561000010000F0FF0AB24597DB3448D0F800C023
:105620002868C117090441EA1041070462460023B3
:105630003846FAF777FD32460023CDE90201FAF742
:1056400071FD28602948D0F800C06868C1170904B6
:1056500041EA10410704624600233846FAF762FD2A
:1056600032460023CDE90201FAF75CFD68601F486D
:10567000D0F800C0A868C117090441EA1041070426
:10568000624600233846FAF74DFD32460023CDE945
:105690000201FAF747FDA8601448D0F804C0216859
:1056A000C817000440EA11480F0462460023384638
:1056B0004146FAF737FD32460023CDE90201FAF7F9
:1056C00031FD20600948D0F804C06068C1170904A2
:1056D00041EA10410704624600233846FAF722FDEA
:1056E0003246002304E00000000000206869000842
:1056F000CDE90201FAF716FD60601148D0F804C048
:10570000A068C117090441EA10410704624600235A
:105710003846FAF707FD32460023CDE90201FAF7D1
:1057200001FDA060A068002804DDA068A0F580301D
:10573000A06003E0A06800F58030A0600020E2E5F2
:10574000686900082DE9FC5F06460F4600253D49C3
:105750004968087801AB03220D21FEF749FE10B11C
:105760000720BDE8FC9F9DF8040000F01F008DF8A5
:1057700004009DF8050000F01F008DF805009DF85D
:10578000060000F01F008DF80600002456E056F8D1
:10579000240057F82410A0EB010BBBF1000F01DB34
:1057A000594601E0CBF100010846FAF755FE4FF0EB
:1057B0008F410090FAF7A0FD814601A8005D68B313
:1057C00021490868FAF751FE834659461F48FAF7FF
:1057D00093FD804604E01E494046FAF75BFD804693
:1057E00001A8005D401EC0B201A908550028F2D1F1
:1057F00041464846FAF780FD83464FF07E51FAF75E
:1058000043FD82462AF0004B0F4881695846FAF75B
:10581000C7FE12D20120A04005430EE00A480169EC
:105820004846FAF7B3FE05D3074841694846FAF7F8
:10583000B7FE02D20120A0400543641C032CA6DB66
:1058400028468EE7000000206869000800B04C453B
:1058500054E3853F014691F90020002A01DD002034
:105860001EE091F90020002A01DA042018E091F9E5
:105870000120002A01DD012012E091F90120002A17
:1058800001DA05200CE091F90220002A01DD022056
:1058900006E091F90220002A01DA062000E0072044
:1058A0007047000010B5FBF73BFEFDF73DFDFDF72F
:1058B000B1FAFDF771FBFDF717FBFDF733FBFDF7C1
:1058C000AFFBFDF7EBFBFDF727FC08210E48FCF7CB
:1058D000ABFE0C210C48FCF7A7FE00210B48FCF79F
:1058E00079FC04210948FCF775FC00210848FCF705
:1058F00071FC04210648FCF76DFC0648FCF7E0FA51
:10590000FDF710FF002010BD70010020B80100203D
:10591000000200202801002070B50446002624F073
:105920000104184890F8240008B1002070BD154803
:10593000807A10B94FF0FF30F8E71248057C807A82
:105940002040104908740846007CA04202D04FF065
:10595000FF3600E0002614B90A48007D18B1012086
:1059600000F080FF02E0002000F07CFF3CB100F07E
:1059700025FB20B1034805744FF0FF30D6E73046D1
:10598000D4E700000000002001461148407A30B101
:10599000012807D0022808D003280CD108E00220F3
:1059A00008700BE00420087008E00820087005E08B
:1059B0001020087002E04FF0FF30704700BF04482D
:1059C000C07C18B108784006000E08700020F4E78B
:1059D0000000002001461348407A30B1012808D069
:1059E00002280AD0032810D10BE04FF48040088031
:1059F0000EE041F69C7008800AE04FF48050088069
:105A000006E04FF40060088002E04FF0FF3070477E
:105A100000BF0448C07C10B10888401008800020F6
:105A2000F5E700000000002001460248007C0870F5
:105A3000002070470000002001460F48007A30B176
:105A4000012807D0022809D003280FD10AE0FA2044
:105A500008800EE04FF4FA7008800AE04FF47A7084
:105A6000088006E04FF4FA60088002E00020088019
:105A700000BF00BF002070470000002001460E4814
:105A8000007A30B1012807D0022808D003280CD1B1
:105A900008E00A4808600BE00948086008E0094887
:105AA000086005E00848086002E04FF0FF307047EA
:105AB00000BF0020FBE700000000002000000343BF
:105AC000000083423333034233338341014612489B
:105AD000C07A082817D2DFE800F01704070A0D1073
